:100000000C9410010C949A020C94BA020C94D8032C
:100010000C9478030C942D010C942D010C942D015B
:100020000C942D010C942D010C9499050C942D0128
:100030000C942D010C94FB0B0C942D010C942D01B0
:100040000C942D010C942D010C942D010C942D0178
:100050000C942D01630269026F0275027B0281021A
:10006000870254686520526F626F74206E65656404
:100070007320746F206265207265736574746564A3
:10008000206E6F772E0A0A00596F75206E656564C1
:1000900020746F20636865636B204D6F746F7220EE
:1000A000617373656D626C7920286F7220796F754A
:1000B0007220736F667477617265292E0A0A000ACE
:1000C0000A28732E207461736B5F6D6F746F7243B7
:1000D0006F6E74726F6C28292066756E6374696F19
:1000E0006E20696E205250364C696221290A000A3E
:1000F0000A232323204D4F544F52204F564552433D
:10010000555252454E54202323230A00596F75201F
:100110006E65656420746F20636865636B20456E4F
:10012000636F6465722F4D6F746F722061737365B6
:100130006D626C7920286F7220796F757220736FF1
:10014000667477617265292E0A0A00210A0A2873EB
:100150002E207461736B5F6D6F746F72436F6E747A
:10016000726F6C28292066756E6374696F6E2069E2
:100170006E205250364C696221290A005249474884
:1001800054004C45465400416666656374656420BE
:100190006368616E6E656C3A000A23232320454E26
:1001A000434F44455220284F52204D4F544F52291F
:1001B000204D414C46554E4354494F4E2120232358
:1001C000230A00232323232320414C4C204F504556
:1001D000524154494F4E532053544F5050454420A0
:1001E000544F2050524556454E5420414E592044BC
:1001F000414D414745212023232323230A000A0A96
:10020000232323232320454D455247454E43592060
:1002100053485554444F574E2023232323230A0089
:1002200011241FBECFE5D8E0DEBFCDBF10E0A0E6B1
:10023000B0E0EEE6FBE102C005900D92AE36B107EC
:10024000D9F711E0AEE6B0E001C01D92A631B107CA
:10025000E1F70E948A0C0C94B50D0C94000021E08B
:1002600040EA51E061E08CE90E940E0A21E044EB93
:1002700050E062E08AE50C94A80A80918D0081111B
:1002800004C09091EA00992359F091E09093700096
:10029000882311F083E001C082E080936F0008950D
:1002A0009091CC008091D500992321F0882321F0F2
:1002B00083E003C0882321F082E0809370000895DA
:1002C00010927000089580917000813059F028F0EC
:1002D000823051F08330C9F0089560EA70E080EA1E
:1002E00090E011C00C942F016091CC0028ED260302
:1002F000B001112460567F4F3091D5002303C00117
:10030000112480569F4F0C94020360E070E080E05F
:1003100090E00E9402038091BB009091BC00813A62
:100320009F4030F00E94420D80FF05C062E004C093
:1003300060916E0001C063E060936E008091BA002E
:100340008E7F8093BA001092BC001092BB00809107
:10035000BA0081608093BA0021E04AE550E08AE566
:100360000C94A80A08950895089508958091A10015
:10037000843010F01092A100089584E08093A100D1
:10038000089587B38C7787BB88B38C7788BB8091BF
:100390008C0083FF02C0BF9AC79A80918C0084FFB3
:1003A00002C0B99AC19A80918C0085FF02C0B89AA8
:1003B000C09A84B38F7884BB85B38F7885BB24B310
:1003C00080918C0030E1839FC00111248077822BC3
:1003D00084BB25B380918C0030E1839FC001112440
:1003E0008077822B85BB8091A100811106C081E0BE
:1003F00090918C00911101C080E08093A10008953C
:1004000080938C000C94C101C098B898000086B30A
:10041000817090918C0095FF02C0B89AC09A08959F
:10042000AE98A698000083B3807490918C0092FFE0
:1004300002C0A69AAE9A08959093680080936700D0
:100440000895CF938091D9008333C0F00E940402B5
:10045000C82F0E94100290918D009C1304C09091AF
:10046000EA00981749F0C0938D008093EA00E0916C
:100470006700F091680009951092D900CF91089516
:1004800036990AC0806487B986ED86B93699FECF61
:10049000349A84B195B1089580E090E00895806425
:1004A00087B986ED86B90895369943C08091820058
:1004B00090E08730910598F5FC01E65DFF4F84B12F
:1004C00095B10C94EE0C9093EE008093ED0086E4D1
:1004D00023C09093F3008093F20085E41DC09093B5
:1004E000E4008093E30083E417C09093AD00809311
:1004F000AC0082E411C09093D3008093D20080E4DA
:100500000BC09093E1008093E00081E405C09093DC
:10051000AB008093AA0087E487B986ED86B9809105
:100520008200863019F41092820008958F5F8093C4
:10053000820008951F920F920FB60F9211248F938D
:100540009F938091E8009091E90001969093E900D3
:100550008093E8008091DE009091DF0001969093F7
:10056000DF008093DE009F918F910F900FBE0F9060
:100570001F9018951F920F920FB60F9211248F9310
:100580009F938091DA009091DB0001969093DB00BD
:100590008093DA008091B4009091B5000196909319
:1005A000B5008093B4009F918F910F900FBE0F9074
:1005B0001F90189590936600809365000895893C7C
:1005C00008F088EC90E09093930080939200693C4F
:1005D00008F068EC70E070939100609390000895CB
:1005E000809371002FEF280F91E0223008F090E007
:1005F000909375008D7F91E0813009F090E09093A9
:1006000074000895292F221F2227221F209375008E
:10061000771F7727771F709374001816190614F048
:10062000819561950C94DF0290918B00937081E02D
:1006300009F080E0089510929300109292001092B9
:1006400091001092900010929D0010929C001092C8
:10065000D8001092D70080918B008E7F8D7F809381
:100660008B008093EC00E0916500F09166000994A6
:10067000633D08F062ED70E07093B3006093B200E8
:10068000833D08F082ED90E09093A3008093A20058
:100690000895809373006093720080937500609357
:1006A0007400882311F0AA9A01C0AA98662311F059
:1006B000AB9A0895AB98089590919700992321F0F3
:1006C00099B7906899BFF8CF6F7370E070638F73BC
:1006D00020E4829FC0011124682B792B7093B7000E
:1006E0006093B60080919600806480939600089590
:1006F0001F920F920FB60F9211248F939F938091A8
:1007000064008230B0F5809181008823D1F08C3371
:1007100038F48091D0009091D10096FF07C008C0B6
:100720008091D0009091D10096FF02C0979803C0AD
:1007300082B3805882BB8091810081508093810078
:1007400030C0809197009798882359F18091D0000C
:100750009091D100880F991F9093D1008093D00081
:1007600088E7809381008091970081508093970063
:1007700018C080919B00882391F08091960080FDA5
:1007800005C088B390E4892788BB03C085B380582F
:1007900085BB80919B00815080939B0002C0C69ACC
:1007A000AF9A9F918F910F900FBE0F901F90189549
:1007B0001F920F920FB60F9211248F9380916400B5
:1007C000833011F0863079F48091960084FD0BC05F
:1007D0008091960085FF07C0B29905C08091EB001B
:1007E0008F5F8093EB0086B3809196008D7F80931E
:1007F00096008F910F900FBE0F901F9018959093B9
:10080000630080936200089590936100809360007C
:1008100008958091AE009091AF00029708F43CC11A
:100820008091960084FD19C180916400823009F4A2
:1008300067C028F4882369F0813091F014C18530B5
:1008400009F4AFC0863009F4C5C0833009F00BC18C
:100850006FC089B78F7789BF9798C69AAF9A03C13F
:100860008091970081112AC08091960086FF14C064
:100870008091B6009091B7009093D1008093D00002
:100880008EE080939700809196008F7B80939600F6
:1008900089B7806889BF06C089B78F7789BF979865
:1008A000C69AAF9A8091800091E0980F9093800053
:1008B000843138F082E08093640003C089B7806897
:1008C00089BF8091960083FFCEC0E0916200F091D5
:1008D00063008091EF009091F00009958091EF0006
:1008E0009091F00090939F0080939E001092F000F2
:1008F0001092EF0080919600877F80939600B3C09E
:1009000089B78F7789BF9798C69AAF9A10929B0044
:100910001092EB0010927F0010927E008091960062
:100920008E7F80628093960083E08093800077C002
:1009300080919B00811110C08091800091E0980F00
:1009400090938000833040F089B7806889BF88E247
:1009500080939B00109280008091CC00882321F02E
:100960008091EB00823020F48091EB00863038F0EB
:100970001092EB0081E08093CC0085E050C0809124
:100980007E0090917F009C012F5F3F4F30937F004E
:1009900020937E000E9708F466C01092CC0085E08C
:1009A00051C089B78F7789BF9798C69AAF9A10922E
:1009B0009B001092EB0010927F0010927E008091BD
:1009C0009600816080628093960083E0809380002F
:1009D00086E025C080919B00811110C0809180002D
:1009E00091E0980F90938000833040F089B7806841
:1009F00089BF88E280939B00109280008091D5008F
:100A0000882321F08091EB00823020F48091EB006C
:100A1000863040F01092EB0081E08093D500809307
:100A2000640021C080917E0090917F009C012F5F27
:100A30003F4F30937F0020937E000E97A0F01092DE
:100A4000D50081E08093640089B78F7789BF97983C
:100A5000C69AAF9A10929B0006C010927F00109227
:100A60007E00109280009091CC0020917D008091BA
:100A7000D500291304C020917C00281749F09093D9
:100A80007D0080937C00E0916000F0916100099509
:100A90001092AF001092AE0008951092640089B7D2
:100AA0008F7789BF9798C69AAF9A1092D500109207
:100AB000CC00089589B78F7789BF9798C69AAF9A67
:100AC0001092D5001092CC0081E0809364000895CC
:100AD0008E989698BB98C398C698AF9808958E9AAA
:100AE000969ABB98C39808958E989698BB9AC39A85
:100AF00008958E9A969ABB9AC39A0895C49A809143
:100B0000A100843018F483E08093A1000895C49874
:100B10008091A100843060F4811107C081E0909140
:100B20008C00911103C080E001C081E08093A1009E
:100B300008951F920F920FB60F9211242F933F9397
:100B40004F935F936F937F938F939F93AF93BF93D5
:100B50008091890090918A00019690938A008093F9
:100B600089008091E2008F5F8093E2008091E50030
:100B700091E0980F9093E500893008F447C1809187
:100B8000BA0080FF09C08091BB009091BC00019623
:100B90009093BC008093BB008091BA0081FF09C094
:100BA0008091BD009091BE0001969093BE0080930D
:100BB000BD008091BA0082FF09C08091BF00909172
:100BC000C00001969093C0008093BF008091BA004E
:100BD00083FF09C08091C1009091C200019690935B
:100BE000C2008093C1008091BA0084FF09C0809147
:100BF000C3009091C40001969093C4008093C300F9
:100C00008091BA0085FF09C08091C5009091C6000F
:100C100001969093C6008093C5008091BA0086FF2C
:100C200009C08091C7009091C80001969093C800B8
:100C30008093C7008091BA0087FF09C08091C900E6
:100C40009091CA0001969093CA008093C900809148
:100C5000D60091E0980F9093D600893CE8F08091FF
:100C6000B4009091B5009093E7008093E6008091E6
:100C7000DE009091DF009093A5008093A400109275
:100C8000B5001092B4001092DF001092DE0081E0F7
:100C90008093A0001092D6004091A100433008F04C
:100CA00052C0423081F580918C00811120C080912A
:100CB0007A0090917B009C012F5F3F4F30937B0027
:100CC00020937A0068EC70E00E94B80C892BD9F56B
:100CD000213A3F4028F0B998C1981092A10029C04C
:100CE00087B3842787BB88B3842788BB2CC084FD47
:100CF00002C0B998C19810927B0010927A0081E0EE
:100D00008093A10020C080917A0090917B00813E69
:100D10002EE2920798F0413049F41092A1008091A0
:100D20008C0084FD06C0B998C19803C082E080930E
:100D3000A10010927B0010927A0005C0019690935A
:100D40007B0080937A008091AE009091AF00039772
:100D500048F48091AE009091AF0001969093AF005F
:100D60008093AE008091CE00873318F48F5F80931C
:100D7000CE008091D900843328F48091D9008F5F10
:100D80008093D9008091D40091E0980F9093D40083
:100D90008330D0F14091CF00242F30E08091B20019
:100DA0009091B3002817390759F02817390714F420
:100DB0004F5F01C041504093CF008091CF008ABD6A
:100DC0004091F100242F30E08091A2009091A30087
:100DD0002817390759F02817390714F44F5F01C055
:100DE00041504093F1008091F10088BD8091F10065
:100DF000811104C08091CF00882319F082EA8FBD51
:100E000001C01FBC1092D4001092E50030919600F2
:100E100033FD47C080917800909179002091770050
:100E20002F5F20937700263198F096FD0AC095FF3A
:100E300008C09093F0008093EF00832F8860809328
:100E40009600809196008F7E8093960080E090E0DF
:100E50004091760036B3342732FF1FC0342F3095CF
:100E600030937600273040F4809196008F7E8093F7
:100E7000960080E090E004C0009711F02F3068F0F9
:100E80002091960020612093960096FD02C0880F65
:100E9000991F32FF816010927700909379008093C0
:100EA0007800BF91AF919F918F917F916F915F91EA
:100EB0004F913F912F910F900FBE0F901F9018955B
:100EC0001092E2009091E2009817E0F30895CF931A
:100ED000DF93EC01209729F08AE00E9460072197B8
:100EE000F9CFDF91CF910895019710F00000FCCF6A
:100EF0000895C82FF89497980E9468051092A3004F
:100F00001092A2001092B3001092B20010929D00B5
:100F100010929C001092D8001092D7001092F1000D
:100F20001092CF001ABC18BC1FBC0E9487058EEF20
:100F300091E00E94720B83EC91E00E94720B8FEFA4
:100F40008C0F8230C0F489E991E00E94720B87E82F
:100F500091E00E94720BC13019F482E891E002C066
:100F60008CE791E00E94720B8BE491E00E94720B7F
:100F70008CE091E00CC0C33061F48FEE90E00E94F1
:100F8000720B8FEB90E00E94720B88E890E00E9459
:100F9000720B82E690E00E94720BD6E3D0938C0035
:100FA0000E94C101CAE080E090E80E947407C1502D
:100FB000D1F710928C000E94C101CAE08FEF9FEF21
:100FC0000E947407C150D1F7E9CF8091CE008233DF
:100FD00008F475C01092CE002091CB008091F200F1
:100FE0009091F30021113CC040918B00833023E0AD
:100FF000920738F42091E3003091E400233033402D
:10100000E0F08091CD008F5F8093CD008AE08093E7
:10101000CB001092A3001092A2001092B300109285
:10102000B20010929D0010929C001092D800109275
:10103000D700446040938B000895242F2B7F20938A
:101040008B0020919800253628F01092CD00109248
:10105000980006C02091CD00233010F083E014C02A
:101060008639910598F48091A4009091A500892B70
:1010700069F48091920090919300892B39F08091CE
:10108000F100873918F081E00E9479078091E30030
:101090009091E4008639910590F48091E60090915A
:1010A000E700892B61F48091900090919100892B49
:1010B00031F08091CF00873910F082E0E5CF809148
:1010C000A000882309F48EC18091CB00811185C1D5
:1010D0008091CD00882331F0809198008F5F8093BC
:1010E000980002C01092980040918B0041FF39C0D7
:1010F0002091E8003091E90080918E0090918F005E
:101100002817390788F010929300109292001092DD
:101110009D0010929C001092A3001092A200842FB8
:101120008D7F80938B001DC02091E8003091E900F5
:101130008091A6009091A7002817390790F0809120
:101140009200909193009695879590939300809349
:101150009200469730F486E190E09093930080935C
:10116000920040918B0040FF39C02091DA0030910D
:10117000DB008091B0009091B1002817390788F00A
:1011800010929100109290001092D8001092D70007
:101190001092B3001092B200842F8E7F80938B0048
:1011A0001DC02091DA003091DB008091DC0090912D
:1011B000DD002817390790F0809190009091910000
:1011C000969587959093910080939000469730F480
:1011D00086E190E09093910080939000809175005B
:1011E00090917300891307C0209174009091720050
:1011F000291709F451C04091920050919300209119
:101200009000309191004115510519F421153105D7
:1012100001F150939500409394003093A9002093DE
:10122000A8001092930010929200109291001092D8
:1012300090001092B3001092B2001092A30010928E
:10124000A20010929D0010929C001092D800109263
:10125000D7009FB5911120C0609174000E9449038E
:101260002091940030919500309393002093920048
:101270008091A8009091A900909391008093900094
:101280003695279530939D0020939C0096958795E1
:101290009093D8008093D7002091920030919300D2
:1012A0008091A4009091A500A901481B590BCA0187
:1012B00040919C0050919D00840F951F853A51E00C
:1012C000950714F084EA91E090939D0080939C0030
:1012D00080919C0090919D008C359E4F34F48CE55C
:1012E0009EEF90939D0080939C008091A40090912C
:1012F000A500892B31F4232B21F410929D0010922C
:101300009C0080919C0090919D0097FD0196959581
:101310008795833D910514F082ED90E09093A300B2
:101320008093A2008091A2009091A30097FF04C037
:101330001092A3001092A200209190003091910091
:101340008091E6009091E700A901481B590BCA0162
:101350004091D7005091D800840F951F853A51E0F5
:10136000950714F084EA91E09093D8008093D70019
:101370008091D7009091D8008C359E4F34F48CE545
:101380009EEF9093D8008093D7008091E6009091D3
:10139000E700892B31F4232B21F41092D80010920E
:1013A000D7008091D7009091D80097FD0196959530
:1013B0008795833D910514F082ED90E09093B30002
:1013C0008093B2008091B2009091B30097FF08C063
:1013D0001092B3001092B20003C081508093CB00F2
:1013E0001092A00080918B009091EC00981739F03A
:1013F0008093EC00E0916500F091660009940895F7
:10140000D49ADC9A0895DC98D49808950E945402E6
:101410000E9409040E9421020C94E507EF92FF92BA
:101420001F93CF93DF931F92CDB7DEB7162F7A01AC
:1014300090918B009160926090938B001092DD00F0
:101440001092DC001092A7001092A600873180F065
:1014500046EF5FEF481B5109440F551F4E0D5F1DAE
:101460005093DD004093DC005093A7004093A6000A
:10147000A701425051095093B1004093B0005093DE
:101480008F0040938E0098E2E916F104C0F444E125
:1014900050E05093B1004093B00050938F004093C0
:1014A0008E004AE050E05093DD004093DC00509302
:1014B000A7004093A600A8E2EA2EF12C05C0E0E9BF
:1014C000EE16E1E0FE0698F4893288F0A701569501
:1014D000479556954795C701841B950B9093DD0062
:1014E0008093DC009093A7008093A60088E210927E
:1014F000E9001092E8001092DB001092DA00682FE9
:1015000029830E94DF02812F0E94F002F092B9002D
:10151000E092B800F0929A00E092990080918B00DE
:101520008093EC00E0916500F091660009952981B7
:10153000222339F00E941403811103C00E94060A7D
:10154000F9CF0F90DF91CF911F91FF90EF90089509
:10155000FF920F931F93CF93DF93182FF62E022F36
:1015600080918B008160826080938B009A01A0EB58
:10157000B2E00E94A90C24E630E040E050E00E9476
:10158000CC0CE901C901845691099093DD00809348
:10159000DC009093A7008093A6003093B1002093C5
:1015A000B00030938F0020938E0028323105B0F4C4
:1015B00044E150E05093B1004093B00050938F004D
:1015C00040938E004AE050E05093DD004093DC00F1
:1015D0005093A7004093A600C8E2D0E0612F812F6E
:1015E0000E94DF028F2D0E94F0021092E9001092FB
:1015F000E8001092DB001092DA00D093B900C0939B
:10160000B800D0939A00C093990080918B0080938A
:10161000EC00E0916500F09166000995002339F037
:101620000E941403811103C00E94060AF9CFDF91C2
:10163000CF911F910F91FF9008951BBA18BA15BA58
:1016400081E082BB1ABA88E587BB8CE884BB82EF55
:1016500081BBF894C598BD9A97980E94680510BC04
:101660008CE089B91BB886E880BD88E98AB917B8CB
:1016700086E186B910BE85E085BF80EE8BBF14BEC3
:101680008AE083BF83E68CBF82EA8FBD81E18EBD95
:1016900082ED90E097BD86BD1ABC18BC60E080E08A
:1016A0000E94490389E085BD8EE683BD82E089BF43
:1016B0008091960081608093960081E08093640021
:1016C000789408955D9BFECF8CB90895CF93DF93F6
:1016D000EC018991882319F00E94620BFACFDF9107
:1016E000CF910895CF93DF93FC018491EF01219670
:1016F000882321F00E94620BFE01F7CFDF91CF918A
:1017000008950F931F93CF93DF931F92CDB7DEB74A
:101710008C01040F111DF80181918F01882341F084
:10172000662331F069830E94620B69816150F3CFB7
:101730000F90DF91CF911F910F910895CF93DF9379
:10174000CDB7DEB761970FB6F894DEBF0FBECDBF41
:10175000462F50E0BE016F5F7F4F0E94520DCE01B9
:1017600001960E94660B61960FB6F894DEBF0FBE1D
:10177000CDBFDF91CF910895EF92FF920F931F930A
:10178000CF93DF93CDB7DEB761970FB6F894DEBF86
:101790000FBECDBFE42E462F50E08E010F5F1F4FCE
:1017A000B8010E94520DF80101900020E9F731972D
:1017B000E01BF10BFE2CFE1A1F1454F4FA9480E384
:1017C0000E94620BF110FACFC8010E94660B06C09E
:1017D0004F2D41956E2DC8010E94810B61960FB669
:1017E000F894DEBF0FBECDBFDF91CF911F910F9157
:1017F000FF90EF9008951F920F920FB60F92112451
:101800002F938F939F93EF93FF93909183008091F9
:101810008400292F281B2032A8F4E091850081E064
:101820008E0F80938500F0E02CB1EB50FF4F2083AA
:101830009F5F90938300813210F010928500109288
:10184000F40006C08CB18093880081E08093F4009E
:10185000FF91EF919F918F912F910F900FBE0F905D
:101860001F9018951092F40080918400909183004D
:101870009817A1F08F5F8093840080918600813259
:1018800010F010928600E091860081E08E0F809328
:101890008600F0E0EB50FF4F8081089580E00895CE
:1018A0001092F400282FFC018E2F821B909184004F
:1018B000309183003917B9F08617A8F49F5F909391
:1018C0008400A091860081E08A0F80938600B0E0BA
:1018D000AB50BF4F8C91819380918600813220F371
:1018E00010928600E1CF089580918300909184004A
:1018F000891B089557988CB18093870010928600B9
:101900001092850010928400109283001092F400CF
:10191000579A08950E941D0B8FE30E9400028CEDE0
:1019200095E00E94670781E20E9400020E947E0506
:101930000E9479051092BC001092BB0080E090E0FC
:101940000E94470D0E943D010E9463010E94060A09
:10195000F9CFA29FB001B39FC001A39F700D811D5D
:101960001124911DB29F700D811D1124911D0895A8
:10197000AA1BBB1B51E107C0AA1FBB1FA617B707B5
:1019800010F0A61BB70B881F991F5A95A9F78095D1
:101990009095BC01CD010895A1E21A2EAA1BBB1B94
:1019A000FD010DC0AA1FBB1FEE1FFF1FA217B3072B
:1019B000E407F50720F0A21BB30BE40BF50B661F41
:1019C000771F881F991F1A9469F760957095809505
:1019D00090959B01AC01BD01CF010895EE0FFF1F53
:1019E0000590F491E02D09948F929F92AF92BF924F
:1019F000CF92DF92EF92FF92CF93DF93EC01688159
:101A000079818A819B81611571058105910521F498
:101A100064E279ED8BE597E02DE133EF41E050E0B2
:101A20000E94960D49015A019B01AC01A7EAB1E45D
:101A30000E94830D6B017C01ACEEB4EFA501940113
:101A40000E94910DC60ED71EE81EF91EF7FE06C0B5
:101A500081E0C81AD108E10880E8F80AC882D98272
:101A6000EA82FB82C6019F77DF91CF91FF90EF90D2
:101A7000DF90CF90BF90AF909F908F9008950E947D
:101A8000F40C089589E690E00E94F40C0895A0E01B
:101A9000B0E08093690090936A00A0936B00B093CC
:101AA0006C000895FB019F01E8944230C4F0453278
:101AB000B4F44A3029F497FB1EF4909581959F4F1A
:101AC000642F77270E94B80C805D8A330CF0895D03
:101AD0008193CB010097A1F716F45DE25193108238
:101AE000C9010C94730DDC01FC01672F7191772300
:101AF000E1F7329704C07C916D9370836291AE17C9
:101B0000BF07C8F308950E94A90CA59F900DB49F2C
:101B1000900DA49F800D911D11240895B7FF0C9482
:101B2000830D0E94830D821B930B0895052E97FB56
:101B30001EF400940E94AD0D57FD07D00E94CC0CFE
:101B400007FC03D04EF40C94AD0D509540953095A4
:101B500021953F4F4F4F5F4F089590958095709519
:0E1B600061957F4F8F4F9F4F0895F894FFCFF0
:0E1B6E00B501B40101B301B201010000000095
:00000001FF
