:100000000C9410010C9417020C9437020C945503B5
:100010000C94F5020C942D010C942D010C942D01DF
:100020000C942D010C942D010C9416050C942D01AB
:100030000C942D010C94780B0C942D010C942D0133
:100040000C942D010C942D010C942D010C942D0178
:100050000C942D01E001E601EC01F201F801FE0132
:10006000040254686520526F626F74206E65656487
:100070007320746F206265207265736574746564A3
:10008000206E6F772E0A0A00596F75206E656564C1
:1000900020746F20636865636B204D6F746F7220EE
:1000A000617373656D626C7920286F7220796F754A
:1000B0007220736F667477617265292E0A0A000ACE
:1000C0000A28732E207461736B5F6D6F746F7243B7
:1000D0006F6E74726F6C28292066756E6374696F19
:1000E0006E20696E205250364C696221290A000A3E
:1000F0000A232323204D4F544F52204F564552433D
:10010000555252454E54202323230A00596F75201F
:100110006E65656420746F20636865636B20456E4F
:10012000636F6465722F4D6F746F722061737365B6
:100130006D626C7920286F7220796F757220736FF1
:10014000667477617265292E0A0A00210A0A2873EB
:100150002E207461736B5F6D6F746F72436F6E747A
:10016000726F6C28292066756E6374696F6E2069E2
:100170006E205250364C696221290A005249474884
:1001800054004C45465400416666656374656420BE
:100190006368616E6E656C3A000A23232320454E26
:1001A000434F44455220284F52204D4F544F52291F
:1001B000204D414C46554E4354494F4E2120232358
:1001C000230A00232323232320414C4C204F504556
:1001D000524154494F4E532053544F5050454420A0
:1001E000544F2050524556454E5420414E592044BC
:1001F000414D414745212023232323230A000A0A96
:10020000232323232320454D455247454E43592060
:1002100053485554444F574E2023232323230A0089
:1002200011241FBECFE5D8E0DEBFCDBF10E0A0E6B1
:10023000B0E0EAE3F9E102C005900D92AA36B107F9
:10024000D9F711E0AAE6B0E001C01D92AF30B107C6
:10025000E1F70E94070C0C949B0C0C94000008958D
:1002600008950895089580919A00843010F01092B6
:100270009A00089584E080939A00089587B38C775C
:1002800087BB88B38C7788BB8091850083FF02C0D1
:10029000BF9AC79A8091850084FF02C0B99AC19A1B
:1002A0008091850085FF02C0B89AC09A84B38F7888
:1002B00084BB85B38F7885BB24B38091850030E102
:1002C000839FC00111248077822B84BB25B380914A
:1002D000850030E1839FC00111248077822B85BB8C
:1002E00080919A00811106C081E090918500911162
:1002F00001C080E080939A000895809385000C945B
:100300003E01C098B898000086B381709091850036
:1003100095FF02C0B89AC09A0895AE98A6980000BA
:1003200083B380749091850092FF02C0A69AAE9A22
:10033000089590936800809367000895CF9380910B
:10034000D2008333C0F00E948101C82F0E948D012A
:10035000909186009C1304C09091E300981749F097
:10036000C09386008093E300E0916700F0916800FD
:1003700009951092D200CF91089536990AC08064F1
:1003800087B986ED86B93699FECF349A84B195B196
:10039000089580E090E00895806487B986ED86B97D
:1003A0000895369943C080917B0090E08730910595
:1003B00098F5FC01E65DFF4F84B195B10C94640C97
:1003C0009093E7008093E60086E423C09093EC00CE
:1003D0008093EB0085E41DC09093DD008093DC00EA
:1003E00083E417C09093A6008093A50082E411C017
:1003F0009093CC008093CB0080E40BC09093DA0004
:100400008093D90081E405C09093A4008093A30059
:1004100087E487B986ED86B980917B00863019F430
:1004200010927B0008958F5F80937B0008951F9248
:100430000F920FB60F9211248F939F938091E1003A
:100440009091E20001969093E2008093E100809108
:10045000D7009091D80001969093D8008093D70050
:100460009F918F910F900FBE0F901F9018951F9224
:100470000F920FB60F9211248F939F938091D30008
:100480009091D40001969093D4008093D3008091F2
:10049000AD009091AE0001969093AE008093AD00B8
:1004A0009F918F910F900FBE0F901F901895909372
:1004B0006600809365000895893C08F088EC90E020
:1004C00090938C0080938B00693C08F068EC70E09E
:1004D00070938A0060938900089580936A002FEFDB
:1004E000280F91E0223008F090E090936E008D7F0D
:1004F00091E0813009F090E090936D000895292FEC
:10050000221F2227221F20936E00771F7727771F35
:1005100070936D001816190614F0819561950C946E
:100520005C0290918400937081E009F080E008956E
:1005300010928C0010928B0010928A001092890009
:1005400010929600109295001092D1001092D00057
:10055000809184008E7F8D7F809384008093E5005E
:10056000E0916500F09166000994633D08F062ED4A
:1005700070E07093AC006093AB00833D08F082EDB7
:1005800090E090939C0080939B00089580936C0072
:1005900060936B0080936E0060936D00882311F070
:1005A000AA9A01C0AA98662311F0AB9A0895AB9855
:1005B000089590919000992321F099B7906899BF80
:1005C000F8CF6F7370E070638F7320E4829FC00177
:1005D0001124682B792B7093B0006093AF00809149
:1005E0008F00806480938F0008951F920F920FB642
:1005F0000F9211248F939F93809164008230B0F505
:1006000080917A008823D1F08C3338F48091C9002E
:100610009091CA0096FF07C008C08091C9009091D0
:10062000CA0096FF02C0979803C082B3805882BB6D
:1006300080917A00815080937A0030C08091900040
:100640009798882359F18091C9009091CA00880F2A
:10065000991F9093CA008093C90088E780937A001D
:100660008091900081508093900018C080919400F8
:10067000882391F080918F0080FD05C088B390E4BD
:10068000892788BB03C085B3805885BB80919400BF
:1006900081508093940002C0C69AAF9A9F918F9127
:1006A0000F900FBE0F901F9018951F920F920FB6CC
:1006B0000F9211248F9380916400833011F0863063
:1006C00079F480918F0084FD0BC080918F0085FFAD
:1006D00007C0B29905C08091E4008F5F8093E40069
:1006E00086B380918F008D7F80938F008F910F90C4
:1006F0000FBE0F901F901895909363008093620037
:100700000895909361008093600008958091A70000
:100710009091A800029708F43CC180918F0084FD5D
:1007200019C180916400823009F467C028F48823DD
:1007300069F0813091F014C1853009F4AFC0863082
:1007400009F4C5C0833009F00BC16FC089B78F773A
:1007500089BF9798C69AAF9A03C180919000811182
:100760002AC080918F0086FF14C08091AF009091C5
:10077000B0009093CA008093C9008EE080939000EF
:1007800080918F008F7B80938F0089B7806889BFAD
:1007900006C089B78F7789BF9798C69AAF9A80911C
:1007A000790091E0980F90937900843138F082E0DD
:1007B0008093640003C089B7806889BF80918F00EF
:1007C00083FFCEC0E0916200F09163008091E80069
:1007D0009091E90009958091E8009091E90090934B
:1007E0009800809397001092E9001092E8008091A1
:1007F0008F00877F80938F00B3C089B78F7789BFC1
:100800009798C69AAF9A109294001092E4001092B2
:1008100078001092770080918F008E7F80628093A5
:100820008F0083E08093790077C0809194008111DC
:1008300010C08091790091E0980F909379008330F7
:1008400040F089B7806889BF88E280939400109255
:1008500079008091C500882321F08091E4008230E6
:1008600020F48091E400863038F01092E40081E0BA
:100870008093C50085E050C080917700909178000A
:100880009C012F5F3F4F30937800209377000E97A5
:1008900008F466C01092C50085E051C089B78F7713
:1008A00089BF9798C69AAF9A109294001092E4006C
:1008B000109278001092770080918F0081608062A2
:1008C00080938F0083E08093790086E025C080913B
:1008D0009400811110C08091790091E0980F90935D
:1008E0007900833040F089B7806889BF88E28093BF
:1008F0009400109279008091CE00882321F080919D
:10090000E400823020F48091E400863040F01092C0
:10091000E40081E08093CE008093640021C0809148
:100920007700909178009C012F5F3F4F30937800C3
:10093000209377000E97A0F01092CE0081E0809374
:10094000640089B78F7789BF9798C69AAF9A10923B
:10095000940006C0109278001092770010927900EF
:100960009091C500209176008091CE00291304C09B
:1009700020917500281749F09093760080937500B8
:10098000E0916000F091610009951092A80010922A
:10099000A70008951092640089B78F7789BF979850
:1009A000C69AAF9A1092CE001092C500089589B7EA
:1009B0008F7789BF9798C69AAF9A1092CE001092FF
:1009C000C50081E08093640008958E989698BB9846
:1009D000C398C698AF9808958E9A969ABB98C39874
:1009E00008958E989698BB9AC39A08958E9A969A6F
:1009F000BB9AC39A0895C49A80919A00843018F4DF
:100A000083E080939A000895C49880919A0084307E
:100A100060F4811107C081E090918500911103C0BD
:100A200080E001C081E080939A0008951F920F92A8
:100A30000FB60F9211242F933F934F935F936F93B1
:100A40007F938F939F93AF93BF93809182009091F8
:100A50008300019690938300809382008091DB0055
:100A60008F5F8093DB008091DE0091E0980F909380
:100A7000DE00893008F447C18091B30080FF09C0CF
:100A80008091B4009091B50001969093B500809349
:100A9000B4008091B30081FF09C08091B6009091AD
:100AA000B70001969093B7008093B6008091B30091
:100AB00082FF09C08091B8009091B900019690938F
:100AC000B9008093B8008091B30083FF09C0809182
:100AD000BA009091BB0001969093BB008093BA003E
:100AE0008091B30084FF09C08091BC009091BD004B
:100AF00001969093BD008093BC008091B30085FF68
:100B000009C08091BE009091BF0001969093BF00F4
:100B10008093BE008091B30086FF09C08091C00021
:100B20009091C10001969093C1008093C000809184
:100B3000B30087FF09C08091C2009091C300019665
:100B40009093C3008093C2008091CF0091E0980FF2
:100B50009093CF00893CE8F08091AD009091AE0079
:100B60009093E0008093DF008091D7009091D800AF
:100B700090939E0080939D001092AE001092AD0065
:100B80001092D8001092D70081E0809399001092C3
:100B9000CF0040919A00433008F052C0423081F5B6
:100BA00080918500811120C0809173009091740024
:100BB0009C012F5F3F4F309374002093730068ECCB
:100BC00070E00E942E0C892BD9F5213A3F4028F085
:100BD000B998C19810929A0029C087B3842787BB1F
:100BE00088B3842788BB2CC084FD02C0B998C19803
:100BF000109274001092730081E080939A0020C0DC
:100C00008091730090917400813E2EE2920798F0DB
:100C1000413049F410929A008091850084FD06C00D
:100C2000B998C19803C082E080939A001092740032
:100C30001092730005C00196909374008093730026
:100C40008091A7009091A800039748F48091A70095
:100C50009091A80001969093A8008093A70080919E
:100C6000C700873318F48F5F8093C7008091D2004C
:100C7000843328F48091D2008F5F8093D2008091DA
:100C8000CD0091E0980F9093CD008330D0F140914A
:100C9000C800242F30E08091AB009091AC00281761
:100CA000390759F02817390714F44F5F01C0415034
:100CB0004093C8008091C8008ABD4091EA00242F6B
:100CC00030E080919B0090919C002817390759F0E3
:100CD0002817390714F44F5F01C041504093EA00D0
:100CE0008091EA0088BD8091EA00811104C0809162
:100CF000C800882319F082EA8FBD01C01FBC109282
:100D0000CD001092DE0030918F0033FD47C08091FE
:100D1000710090917200209170002F5F20937000FD
:100D2000263198F096FD0AC095FF08C09093E9001F
:100D30008093E800832F886080938F0080918F00DC
:100D40008F7E80938F0080E090E040916F0036B3FB
:100D5000342732FF1FC0342F309530936F00273077
:100D600040F480918F008F7E80938F0080E090E030
:100D700004C0009711F02F3068F020918F0020619F
:100D800020938F0096FD02C0880F991F32FF81606B
:100D9000109270009093720080937100BF91AF9198
:100DA0009F918F917F916F915F914F913F912F9183
:100DB0000F900FBE0F901F9018951092DB0090912E
:100DC000DB009817E0F30895CF93DF93EC012097B1
:100DD00029F08AE00E94DD062197F9CFDF91CF91BB
:100DE0000895019710F00000FCCF0895C82FF894E3
:100DF00097980E94E50410929C0010929B0010921C
:100E0000AC001092AB0010929600109295001092D8
:100E1000D1001092D0001092EA001092C8001ABCC3
:100E200018BC1FBC0E9404058EEF91E00E94EF0ADF
:100E300083EC91E00E94EF0A8FEF8C0F8230C0F4B8
:100E400089E991E00E94EF0A87E891E00E94EF0AA9
:100E5000C13019F482E891E002C08CE791E00E9471
:100E6000EF0A8BE491E00E94EF0A8CE091E00CC065
:100E7000C33061F48FEE90E00E94EF0A8FEB90E0B8
:100E80000E94EF0A88E890E00E94EF0A82E690E074
:100E90000E94EF0AD6E3D09385000E943E01CAE08B
:100EA00080E090E80E94F106C150D1F710928500D1
:100EB0000E943E01CAE08FEF9FEF0E94F106C150F1
:100EC000D1F7E9CF8091C700823308F475C0109242
:100ED000C7002091C4008091EB009091EC0021119B
:100EE0003CC040918400833023E0920738F4209185
:100EF000DC003091DD0023303340E0F08091C6000B
:100F00008F5F8093C6008AE08093C40010929C009B
:100F100010929B001092AC001092AB0010929600C1
:100F2000109295001092D1001092D000446040932E
:100F300084000895242F2B7F20938400209191001A
:100F4000253628F01092C6001092910006C020911C
:100F5000C600233010F083E014C08639910598F460
:100F600080919D0090919E00892B69F480918B0067
:100F700090918C00892B39F08091EA00873918F024
:100F800081E00E94F6068091DC009091DD008639B8
:100F9000910590F48091DF009091E000892B61F43D
:100FA0008091890090918A00892B31F08091C8004E
:100FB000873910F082E0E5CF80919900882309F409
:100FC0008EC18091C400811185C18091C6008823A3
:100FD00031F0809191008F5F8093910002C0109258
:100FE00091004091840041FF39C02091E10030918F
:100FF000E20080918700909188002817390788F0D7
:1010000010928C0010928B00109296001092950016
:1010100010929C0010929B00842F8D7F80938400FF
:101020001DC02091E1003091E20080919F009091DD
:10103000A0002817390790F080918B0090918C00C8
:101040009695879590938C0080938B00469730F40B
:1010500086E190E090938C0080938B004091840017
:1010600040FF39C02091D3003091D4008091A90075
:101070009091AA002817390788F010928A001092E0
:1010800089001092D1001092D0001092AC00109202
:10109000AB00842F8E7F809384001DC02091D300ED
:1010A0003091D4008091D5009091D600281739074F
:1010B00090F08091890090918A0096958795909301
:1010C0008A0080938900469730F486E190E09093FF
:1010D0008A008093890080916E0090916C00891342
:1010E00007C020916D0090916B00291709F451C041
:1010F00040918B0050918C002091890030918A00A2
:101100004115510519F42115310501F150938E0057
:1011100040938D003093A2002093A10010928C0088
:1011200010928B0010928A00109289001092AC00ED
:101130001092AB0010929C0010929B0010929600AF
:10114000109295001092D1001092D0009FB591118D
:1011500020C060916D000E94C60220918D003091E8
:101160008E0030938C0020938B008091A100909191
:10117000A20090938A00809389003695279530933A
:10118000960020939500969587959093D100809333
:10119000D00020918B0030918C0080919D00909127
:1011A0009E00A901481B590BCA014091950050911E
:1011B0009600840F951F853A51E0950714F084EA54
:1011C00091E0909396008093950080919500909186
:1011D00096008C359E4F34F48CE59EEF90939600EC
:1011E0008093950080919D0090919E00892B31F411
:1011F000232B21F410929600109295008091950077
:101200009091960097FD019695958795833D910560
:1012100014F082ED90E090939C0080939B0080916D
:101220009B0090919C0097FF04C010929C0010922C
:101230009B002091890030918A008091DF0090917D
:10124000E000A901481B590BCA014091D000509100
:10125000D100840F951F853A51E0950714F084EA78
:1012600091E09093D1008093D0008091D000909134
:10127000D1008C359E4F34F48CE59EEF9093D100D5
:101280008093D0008091DF009091E000892B31F4B1
:10129000232B21F41092D1001092D0008091D00025
:1012A0009091D10097FD019695958795833D910585
:1012B00014F082ED90E09093AC008093AB008091AD
:1012C000AB009091AC0097FF08C01092AC00109258
:1012D000AB0003C081508093C400109299008091AC
:1012E00084009091E500981739F08093E500E09133
:1012F0006500F091660009940895D49ADC9A0895E7
:10130000DC98D49808950E94D1010E9486030E941F
:101310009E010C946207EF92FF921F93CF93DF938D
:101320001F92CDB7DEB7162F7A019091840091609D
:101330009260909384001092D6001092D500109283
:10134000A00010929F00873180F046EF5FEF481BAE
:101350005109440F551F4E0D5F1D5093D600409309
:10136000D5005093A00040939F00A701425051091F
:101370005093AA004093A90050938800409387009F
:1013800098E2E916F104C0F444E150E05093AA0059
:101390004093A90050938800409387004AE050E0B2
:1013A0005093D6004093D5005093A00040939F00E7
:1013B000A8E2EA2EF12C05C0E0E9EE16E1E0FE0617
:1013C00098F4893288F0A701569547955695479528
:1013D000C701841B950B9093D6008093D500909302
:1013E000A00080939F0088E21092E2001092E1003A
:1013F0001092D4001092D300682F29830E945C02BF
:10140000812F0E946D02F092B200E092B100F09242
:101410009300E0929200809184008093E500E09137
:101420006500F091660009952981222339F00E9418
:101430009102811103C00E948309F9CF0F90DF91BF
:10144000CF911F91FF90EF900895FF920F931F93FC
:10145000CF93DF93182FF62E022F809184008160A6
:101460008260809384009A01A0EBB2E00E941F0C7E
:1014700024E630E040E050E00E94420CE901C9015E
:10148000845691099093D6008093D5009093A00044
:1014900080939F003093AA002093A9003093880086
:1014A0002093870028323105B0F444E150E0509396
:1014B000AA004093A90050938800409387004AE017
:1014C00050E05093D6004093D5005093A000409335
:1014D0009F00C8E2D0E0612F812F0E945C028F2D17
:1014E0000E946D021092E2001092E1001092D4006E
:1014F0001092D300D093B200C093B100D093930068
:10150000C0939200809184008093E500E091650093
:10151000F09166000995002339F00E949102811133
:1015200003C00E948309F9CFDF91CF911F910F91E2
:10153000FF9008951BBA18BA15BA81E082BB1ABA97
:1015400088E587BB8CE884BB82EF81BBF894C598A3
:10155000BD9A97980E94E50410BC8CE089B91BB82D
:1015600086E880BD88E98AB917B886E186B910BED9
:1015700085E085BF80EE8BBF14BE8AE083BF83E623
:101580008CBF82EA8FBD81E18EBD82ED90E097BD78
:1015900086BD1ABC18BC60E080E00E94C60289E0EB
:1015A00085BD8EE683BD82E089BF80918F0081601A
:1015B00080938F0081E080936400789408955D9B10
:1015C000FECF8CB90895CF93DF93EC0189918823E6
:1015D00019F00E94DF0AFACFDF91CF910895CF93DF
:1015E000DF93FC018491EF012196882321F00E9472
:1015F000DF0AFE01F7CFDF91CF9108950F931F937C
:10160000CF93DF931F92CDB7DEB78C01040F111D6E
:10161000F80181918F01882341F0662331F06983BD
:101620000E94DF0A69816150F3CF0F90DF91CF9163
:101630001F910F910895CF93DF93CDB7DEB76197D8
:101640000FB6F894DEBF0FBECDBF462F50E0BE01EF
:101650006F5F7F4F0E946A0CCE0101960E94E30AE1
:1016600061960FB6F894DEBF0FBECDBFDF91CF916C
:101670000895EF92FF920F931F93CF93DF93CDB70F
:10168000DEB761970FB6F894DEBF0FBECDBFE42E74
:10169000462F50E08E010F5F1F4FB8010E946A0C69
:1016A000F80101900020E9F73197E01BF10BFE2CC7
:1016B000FE1A1F1454F4FA9480E30E94DF0AF1101A
:1016C000FACFC8010E94E30A06C04F2D41956E2D46
:1016D000C8010E94FE0A61960FB6F894DEBF0FBEE5
:1016E000CDBFDF91CF911F910F91FF90EF900895A3
:1016F0001F920F920FB60F9211242F938F939F93E7
:10170000EF93FF9390917C0080917D00292F281BFF
:101710002032A8F4E0917E0081E08E0F80937E005D
:10172000F0E02CB1E251FF4F20839F5F90937C004B
:10173000813210F010927E001092ED0006C08CB144
:101740008093810081E08093ED00FF91EF919F9164
:101750008F912F910F900FBE0F901F9018951092A0
:10176000ED0080917D0090917C009817A1F08F5F33
:1017700080937D0080917F00813210F010927F0075
:10178000E0917F0081E08E0F80937F00F0E0E251D6
:10179000FF4F8081089580E008951092ED00282F7A
:1017A000FC018E2F821B90917D0030917C003917B7
:1017B000B9F08617A8F49F5F90937D00A0917F00F9
:1017C00081E08A0F80937F00B0E0A251BF4F8C91DF
:1017D000819380917F00813220F310927F00E1CFCE
:1017E000089580917C0090917D00891B0895579801
:1017F0008CB18093800010927F0010927E00109236
:101800007D0010927C001092ED00579A08950E947E
:101810009A0A8FE30E947D018CED95E00E94E40618
:1018200081E20E947D010E94FB0421E04AE550E034
:1018300062E088E20E94250A0E948309F6CFA29FF7
:10184000B001B39FC001A39F700D811D1124911D94
:10185000B29F700D811D1124911D0895AA1BBB1B01
:1018600051E107C0AA1FBB1FA617B70710F0A61BA0
:10187000B70B881F991F5A95A9F780959095BC01C1
:10188000CD010895A1E21A2EAA1BBB1BFD010DC0BC
:10189000AA1FBB1FEE1FFF1FA217B307E407F50720
:1018A00020F0A21BB30BE40BF50B661F771F881FFC
:1018B000991F1A9469F760957095809590959B0192
:1018C000AC01BD01CF010895EE0FFF1F0590F4910B
:1018D000E02D0994FB019F01E8944230C4F04532A9
:1018E000B4F44A3029F497FB1EF4909581959F4FEC
:1018F000642F77270E942E0C805D8A330CF0895D5F
:101900008193CB010097A1F716F45DE25193108209
:10191000C9010C948B0CDC01FC01672F71917723BA
:10192000E1F7329704C07C916D9370836291AE179A
:0A193000BF07C8F30895F894FFCF35
:0A193A00320131010130012F0100DC
:00000001FF
