:100000000C9410010C94C9020C94E9020C9407049E
:100010000C94A7030C942D010C942D010C942D012C
:100020000C942D010C942D010C94C8050C942D01F9
:100030000C942D010C942A0C0C942D010C942D0180
:100040000C942D010C942D010C942D010C942D0178
:100050000C942D01920298029E02A402AA02B00200
:10006000B60254686520526F626F74206E656564D5
:100070007320746F206265207265736574746564A3
:10008000206E6F772E0A0A00596F75206E656564C1
:1000900020746F20636865636B204D6F746F7220EE
:1000A000617373656D626C7920286F7220796F754A
:1000B0007220736F667477617265292E0A0A000ACE
:1000C0000A28732E207461736B5F6D6F746F7243B7
:1000D0006F6E74726F6C28292066756E6374696F19
:1000E0006E20696E205250364C696221290A000A3E
:1000F0000A232323204D4F544F52204F564552433D
:10010000555252454E54202323230A00596F75201F
:100110006E65656420746F20636865636B20456E4F
:10012000636F6465722F4D6F746F722061737365B6
:100130006D626C7920286F7220796F757220736FF1
:10014000667477617265292E0A0A00210A0A2873EB
:100150002E207461736B5F6D6F746F72436F6E747A
:10016000726F6C28292066756E6374696F6E2069E2
:100170006E205250364C696221290A005249474884
:1001800054004C45465400416666656374656420BE
:100190006368616E6E656C3A000A23232320454E26
:1001A000434F44455220284F52204D4F544F52291F
:1001B000204D414C46554E4354494F4E2120232358
:1001C000230A00232323232320414C4C204F504556
:1001D000524154494F4E532053544F5050454420A0
:1001E000544F2050524556454E5420414E592044BC
:1001F000414D414745212023232323230A000A0A96
:10020000232323232320454D455247454E43592060
:1002100053485554444F574E2023232323230A0089
:1002200011241FBECFE5D8E0DEBFCDBF10E0A0E6B1
:10023000B0E0E8EDFAE102C005900D92AA36B107F0
:10024000D9F711E0AAE6B0E001C01D92A131B107D3
:10025000E1F70E94B90C0C946A0D0C940000809197
:100260008800811104C09091E5009923A9F091E0E4
:1002700090936B0080936A006CE97FEF8CE99FEFAD
:100280000E9431038091B50081608093B500809118
:10029000B5008D7F8093B50008952091A70030911F
:1002A000A8008091CD009091CE002817390720F446
:1002B000AC01421B530B03C0A901481B590B6091B1
:1002C000B8007091B90065367105F0F045365105FA
:1002D00088F08217930718F468E770E002C062E3C1
:1002E00070E02817390718F488E790E007C082E328
:1002F00090E004C064E670E084E690E00E94310380
:100300001092B9001092B800089580916B0081306E
:1003100039F58091B6009091B700893B9B4000F180
:1003200082E080936B0060E070E080E090E00E94EB
:10033000310382E390E00E94960780916A0088234F
:1003400029F06EE170E088E790E004C068E770E0B3
:100350008EE190E00E9431031092B7001092B60037
:10036000089580916B00823059F58091B60090918C
:10037000B700813D974020F110926B0060E070E083
:1003800080E090E00E94310382E390E00E949607B3
:100390006CE370E08CE390E00E9431038091B50043
:1003A0008E7F8093B5001092B7001092B600109225
:1003B000B9001092B8008091B50082608093B500BA
:1003C0000895089508950895089580919C008430BB
:1003D00010F010929C00089584E080939C00089592
:1003E00087B38C7787BB88B38C7788BB8091870075
:1003F00083FF02C0BF9AC79A8091870084FF02C022
:10040000B99AC19A8091870085FF02C0B89AC09AB4
:1004100084B38F7884BB85B38F7885BB24B38091F8
:10042000870030E1839FC00111248077822B84BB39
:1004300025B38091870030E1839FC001112480772C
:10044000822B85BB80919C00811106C081E0909138
:100450008700911101C080E080939C0008958093F3
:1004600087000C94F001C098B898000086B38170A2
:100470009091870095FF02C0B89AC09A0895AE98EF
:10048000A698000083B380749091870092FF02C009
:10049000A69AAE9A08959093680080936700089595
:1004A000CF938091D4008333C0F00E943302C82FD1
:1004B0000E943F02909188009C1304C09091E50037
:1004C000981749F0C09388008093E500E091670099
:1004D000F091680009951092D400CF910895369953
:1004E0000AC0806487B986ED86B93699FECF349A02
:1004F00084B195B1089580E090E00895806487B953
:1005000086ED86B90895369943C080917D0090E0CC
:100510008730910598F5FC01E65DFF4F84B195B1F8
:100520000C94330D9093E9008093E80086E423C097
:100530009093EE008093ED0085E41DC09093DF0062
:100540008093DE0083E417C09093A8008093A700F7
:1005500082E411C09093CE008093CD0080E40BC064
:100560009093DC008093DB0081E405C09093A600AB
:100570008093A50087E487B986ED86B980917D00D8
:10058000863019F410927D0008958F5F80937D006E
:1005900008951F920F920FB60F9211248F939F937D
:1005A0008091E3009091E40001969093E4008093A1
:1005B000E3008091D9009091DA0001969093DA00DF
:1005C0008093D9009F918F910F900FBE0F901F9035
:1005D00018951F920F920FB60F9211248F939F932D
:1005E0008091D5009091D60001969093D60080938B
:1005F000D5008091AF009091B00001969093B0002B
:100600008093AF009F918F910F900FBE0F901F901E
:10061000189590936600809365000895893C08F0D2
:1006200088EC90E090938E0080938D00693C08F0F8
:1006300068EC70E070938C0060938B000895809359
:100640006C002FEF280F91E0223008F090E090939B
:1006500070008D7F91E0813009F090E090936F0001
:100660000895292F221F2227221F20937000771F11
:100670007727771F70936F001816190614F081956D
:1006800061950C940E0390918600937081E009F0BF
:1006900080E0089510928E0010928D0010928C00D0
:1006A00010928B0010929800109297001092D30035
:1006B0001092D200809186008E7F8D7F809386007D
:1006C0008093E700E0916500F09166000994633D36
:1006D00008F062ED70E07093AE006093AD00833D72
:1006E00008F082ED90E090939E0080939D00089525
:1006F00080936E0060936D008093700060936F0034
:10070000882311F0AA9A01C0AA98662311F0AB9A27
:100710000895AB98089590919200992321F099B78C
:10072000906899BFF8CF6F7370E070638F7320E4A7
:10073000829FC0011124682B792B7093B2006093C3
:10074000B1008091910080648093910008951F9280
:100750000F920FB60F9211248F939F938091640094
:100760008230B0F580917C008823D1F08C3338F44E
:100770008091CB009091CC0096FF07C008C080917B
:10078000CB009091CC0096FF02C0979803C082B333
:10079000805882BB80917C00815080937C0030C067
:1007A000809192009798882359F18091CB00909185
:1007B000CC00880F991F9093CC008093CB0088E7E2
:1007C00080937C008091920081508093920018C0A9
:1007D00080919600882391F08091910080FD05C062
:1007E00088B390E4892788BB03C085B3805885BB54
:1007F0008091960081508093960002C0C69AAF9A6D
:100800009F918F910F900FBE0F901F9018951F9280
:100810000F920FB60F9211248F9380916400833052
:1008200011F0863079F48091910084FD0BC08091A5
:10083000910085FF07C0B29905C08091E6008F5FE7
:100840008093E60086B3809191008D7F8093910024
:100850008F910F900FBE0F901F901895909363008B
:1008600080936200089590936100809360000895E2
:100870008091A9009091AA00029708F43CC1809150
:10088000910084FD19C180916400823009F467C031
:1008900028F4882369F0813091F014C1853009F47F
:1008A000AFC0863009F4C5C0833009F00BC16FC0FA
:1008B00089B78F7789BF9798C69AAF9A03C18091FD
:1008C000920081112AC08091910086FF14C080910E
:1008D000B1009091B2009093CC008093CB008EE059
:1008E00080939200809191008F7B8093910089B7D3
:1008F000806889BF06C089B78F7789BF9798C69AE5
:10090000AF9A80917B0091E0980F90937B008431A7
:1009100038F082E08093640003C089B7806889BFA3
:100920008091910083FFCEC0E0916200F09163005E
:100930008091EA009091EB0009958091EA009091F6
:10094000EB0090939A00809399001092EB00109224
:10095000EA0080919100877F80939100B3C089B7AE
:100960008F7789BF9798C69AAF9A10929600109287
:10097000E60010927A0010927900809191008E7FAB
:1009800080628093910083E080937B0077C08091A8
:100990009600811110C080917B0091E0980F909398
:1009A0007B00833040F089B7806889BF88E28093FC
:1009B000960010927B008091C700882321F08091DF
:1009C000E600823020F48091E600863038F0109204
:1009D000E60081E08093C70085E050C080917900F7
:1009E00090917A009C012F5F3F4F30937A002093C3
:1009F00079000E9708F466C01092C70085E051C0D8
:100A000089B78F7789BF9798C69AAF9A1092960048
:100A10001092E60010927A00109279008091910075
:100A2000816080628093910083E080937B0086E008
:100A300025C080919600811110C080917B0091E0CB
:100A4000980F90937B00833040F089B7806889BF0E
:100A500088E28093960010927B008091D0008823DA
:100A600021F08091E600823020F48091E60086300B
:100A700040F01092E60081E08093D0008093640003
:100A800021C08091790090917A009C012F5F3F4FA7
:100A900030937A00209379000E97A0F01092D00046
:100AA00081E08093640089B78F7789BF9798C69A51
:100AB000AF9A1092960006C010927A0010927900B8
:100AC00010927B009091C700209178008091D00017
:100AD000291304C020917700281749F090937800DB
:100AE00080937700E0916000F09161000995109289
:100AF000AA001092A90008951092640089B78F7718
:100B000089BF9798C69AAF9A1092D0001092C700EA
:100B1000089589B78F7789BF9798C69AAF9A109230
:100B2000D0001092C70081E08093640008958E98F1
:100B30009698BB98C398C698AF9808958E9A969A3F
:100B4000BB98C39808958E989698BB9AC39A0895B7
:100B50008E9A969ABB9AC39A0895C49A80919C00E3
:100B6000843018F483E080939C000895C4988091A9
:100B70009C00843060F4811107C081E0909187006F
:100B8000911103C080E001C081E080939C00089532
:100B90001F920F920FB60F9211242F933F934F93F2
:100BA0005F936F937F938F939F93AF93BF93809146
:100BB0008400909185000196909385008093840035
:100BC0008091DD008F5F8093DD008091E00091E0F7
:100BD000980F9093E000893008F447C18091B500E8
:100BE00080FF09C08091B6009091B7000196909364
:100BF000B7008093B6008091B50081FF09C0809155
:100C0000B8009091B90001969093B9008093B80014
:100C10008091B50082FF09C08091BA009091BB001D
:100C200001969093BB008093BA008091B50083FF3A
:100C300009C08091BC009091BD0001969093BD00C9
:100C40008093BC008091B50084FF09C08091BE00F4
:100C50009091BF0001969093BF008093BE00809159
:100C6000B50085FF09C08091C0009091C100019638
:100C70009093C1008093C0008091B50086FF09C0A9
:100C80008091C2009091C30001969093C30080931D
:100C9000C2008091B50087FF09C08091C400909187
:100CA000C50001969093C5008093C4008091D10047
:100CB00091E0980F9093D100893CE8F08091AF00CB
:100CC0009091B0009093E2008093E1008091D90070
:100CD0009091DA009093A00080939F001092B00052
:100CE0001092AF001092DA001092D90081E0809348
:100CF0009B001092D10040919C00433008F052C0FC
:100D0000423081F580918700811120C0809175006B
:100D1000909176009C012F5F3F4F30937600209397
:100D2000750068EC70E00E94FD0C892BD9F5213A22
:100D30003F4028F0B998C19810929C0029C087B311
:100D4000842787BB88B3842788BB2CC084FD02C05E
:100D5000B998C198109276001092750081E0809346
:100D60009C0020C08091750090917600813E2EE21B
:100D7000920798F0413049F410929C0080918700CE
:100D800084FD06C0B998C19803C082E080939C009E
:100D9000109276001092750005C00196909376002F
:100DA000809375008091A9009091AA00039748F460
:100DB0008091A9009091AA0001969093AA00809337
:100DC000A9008091C900873318F48F5F8093C90010
:100DD0008091D400843328F48091D4008F5F809375
:100DE000D4008091CF0091E0980F9093CF00833092
:100DF000D0F14091CA00242F30E08091AD00909155
:100E0000AE002817390759F02817390714F44F5F37
:100E100001C041504093CA008091CA008ABD4091F0
:100E2000EC00242F30E080919D0090919E002817C7
:100E3000390759F02817390714F44F5F01C04150A2
:100E40004093EC008091EC0088BD8091EC00811112
:100E500004C08091CA00882319F082EA8FBD01C0C6
:100E60001FBC1092CF001092E0003091910033FD32
:100E700047C08091730090917400209172002F5FA1
:100E800020937200263198F096FD0AC095FF08C0A5
:100E90009093EB008093EA00832F88608093910009
:100EA000809191008F7E8093910080E090E040914E
:100EB000710036B3342732FF1FC0342F3095309382
:100EC0007100273040F4809191008F7E80939100D3
:100ED00080E090E004C0009711F02F3068F020917E
:100EE000910020612093910096FD02C0880F991F08
:100EF00032FF8160109272009093740080937300AF
:100F0000BF91AF919F918F917F916F915F914F9121
:100F10003F912F910F900FBE0F901F901895109238
:100F2000DD009091DD009817E0F30895CF93DF93F3
:100F3000EC01209729F08AE00E948F072197F9CFD2
:100F4000DF91CF910895019710F00000FCCF089534
:100F5000C82FF89497980E94970510929E001092BF
:100F60009D001092AE001092AD0010929800109269
:100F700097001092D3001092D2001092EC001092C1
:100F8000CA001ABC18BC1FBC0E94B6058EEF91E0C7
:100F90000E94A10B83EC91E00E94A10B8FEF8C0FBC
:100FA0008230C0F489E991E00E94A10B87E891E0CA
:100FB0000E94A10BC13019F482E891E002C08CE7D5
:100FC00091E00E94A10B8BE491E00E94A10B8CE0C8
:100FD00091E00CC0C33061F48FEE90E00E94A10B51
:100FE0008FEB90E00E94A10B88E890E00E94A10B9B
:100FF00082E690E00E94A10BD6E3D09387000E9486
:10100000F001CAE080E090E80E94A307C150D1F748
:10101000109287000E94F001CAE08FEF9FEF0E94BC
:10102000A307C150D1F7E9CF8091C900823308F4FA
:1010300075C01092C9002091C6008091ED0090917A
:10104000EE0021113CC040918600833023E09207DE
:1010500038F42091DE003091DF0023303340E0F09F
:101060008091C8008F5F8093C8008AE08093C6009B
:1010700010929E0010929D001092AE001092AD0052
:1010800010929800109297001092D3001092D20004
:101090004460409386000895242F2B7F2093860080
:1010A00020919300253628F01092C80010929300EA
:1010B00006C02091C800233010F083E014C08639A8
:1010C000910598F480919F009091A000892B69F47C
:1010D00080918D0090918E00892B39F08091EC00E9
:1010E000873918F081E00E94A8078091DE00909176
:1010F000DF008639910590F48091E1009091E20043
:10110000892B61F480918B0090918C00892B31F0B8
:101110008091CA00873910F082E0E5CF80919B0072
:10112000882309F48EC18091C600811185C1809108
:10113000C800882331F0809193008F5F80939300E3
:1011400002C0109293004091860041FF39C0209167
:10115000E3003091E4008091890090918A00281783
:10116000390788F010928E0010928D00109298002E
:101170001092970010929E0010929D00842F8D7FF8
:10118000809386001DC02091E3003091E40080919F
:10119000A1009091A2002817390790F080918D004E
:1011A00090918E009695879590938E0080938D00F8
:1011B000469730F486E190E090938E0080938D0006
:1011C0004091860040FF39C02091D5003091D60073
:1011D0008091AB009091AC002817390788F01092ED
:1011E0008C0010928B001092D3001092D2001092BB
:1011F000AE001092AD00842F8E7F809386001DC0BC
:101200002091D5003091D6008091D7009091D800E0
:101210002817390790F080918B0090918C0096955B
:10122000879590938C0080938B00469730F486E1ED
:1012300090E090938C0080938B008091700090914F
:101240006E00891307C020916F0090916D002917DF
:1012500009F451C040918D0050918E0020918B0077
:1012600030918C004115510519F42115310501F11A
:101270005093900040938F003093A4002093A300DC
:1012800010928E0010928D0010928C0010928B00A4
:101290001092AE001092AD0010929E0010929D0030
:1012A00010929800109297001092D3001092D200E2
:1012B0009FB5911120C060916F000E94780320912A
:1012C0008F003091900030938E0020938D0080919C
:1012D000A3009091A40090938C0080938B0036958E
:1012E0002795309398002093970096958795909333
:1012F000D3008093D20020918D0030918E00809198
:101300009F009091A000A901481B590BCA01409170
:10131000970050919800840F951F853A51E09507EA
:1013200014F084EA91E09093980080939700809164
:101330009700909198008C359E4F34F48CE59EEF89
:10134000909398008093970080919F009091A000C7
:10135000892B31F4232B21F41092980010929700DE
:10136000809197009091980097FD019695958795AB
:10137000833D910514F082ED90E090939E00809360
:101380009D0080919D0090919E0097FF04C0109257
:101390009E0010929D0020918B0030918C008091D6
:1013A000E1009091E200A901481B590BCA0140914C
:1013B000D2005091D300840F951F853A51E09507D4
:1013C00014F084EA91E09093D3008093D20080914E
:1013D000D2009091D3008C359E4F34F48CE59EEF73
:1013E0009093D3008093D2008091E1009091E2002D
:1013F000892B31F4232B21F41092D3001092D200C8
:101400008091D2009091D30097FD01969595879594
:10141000833D910514F082ED90E09093AE008093AF
:10142000AD008091AD009091AE0097FF08C0109282
:10143000AE001092AD0003C081508093C6001092A0
:101440009B00809186009091E700981739F0809377
:10145000E700E0916500F091660009940895D49A40
:10146000DC9A0895DC98D49808950E9483020E9423
:1014700038040E9450020C941408EF92FF921F93BC
:10148000CF93DF931F92CDB7DEB7162F7A019091DD
:10149000860091609260909386001092D80010921E
:1014A000D7001092A2001092A100873180F046EF81
:1014B0005FEF481B5109440F551F4E0D5F1D5093A0
:1014C000D8004093D7005093A2004093A100A701F9
:1014D000425051095093AC004093AB0050938A00A6
:1014E0004093890098E2E916F104C0F444E150E029
:1014F0005093AC004093AB0050938A004093890016
:101500004AE050E05093D8004093D7005093A20097
:101510004093A100A8E2EA2EF12C05C0E0E9EE1606
:10152000E1E0FE0698F4893288F0A70156954795C8
:1015300056954795C701841B950B9093D8008093CF
:10154000D7009093A2008093A10088E21092E4005B
:101550001092E3001092D6001092D500682F2983D4
:101560000E940E03812F0E941F03F092B400E092AC
:10157000B300F0929500E0929400809186008093F1
:10158000E700E0916500F09166000995298122232A
:1015900039F00E944303811103C00E94350AF9CF3C
:1015A0000F90DF91CF911F91FF90EF900895FF92E0
:1015B0000F931F93CF93DF93182FF62E022F809156
:1015C000860081608260809386009A01A0EBB2E081
:1015D0000E94EE0C24E630E040E050E00E94110D45
:1015E000E901C901845691099093D8008093D700EE
:1015F0009093A2008093A1003093AC002093AB00A5
:1016000030938A002093890028323105B0F444E1F8
:1016100050E05093AC004093AB0050938A0040934D
:1016200089004AE050E05093D8004093D70050938F
:10163000A2004093A100C8E2D0E0612F812F0E9458
:101640000E038F2D0E941F031092E4001092E300FE
:101650001092D6001092D500D093B400C093B3007E
:10166000D0939500C0939400809186008093E7000A
:10167000E0916500F09166000995002339F00E9421
:101680004303811103C00E94350AF9CFDF91CF9146
:101690001F910F91FF9008951BBA18BA15BA81E0F7
:1016A00082BB1ABA88E587BB8CE884BB82EF81BB1A
:1016B000F894C598BD9A97980E94970510BC8CE045
:1016C00089B91BB886E880BD88E98AB917B886E170
:1016D00086B910BE85E085BF80EE8BBF14BE8AE060
:1016E00083BF83E68CBF82EA8FBD81E18EBD82ED30
:1016F00090E097BD86BD1ABC18BC60E080E00E94F7
:10170000780389E085BD8EE683BD82E089BF809144
:10171000910081608093910081E0809364007894CF
:1017200008955D9BFECF8CB90895CF93DF93EC01B4
:101730008991882319F00E94910BFACFDF91CF9104
:101740000895CF93DF93FC018491EF0121968823C4
:1017500021F00E94910BFE01F7CFDF91CF91089508
:101760000F931F93CF93DF931F92CDB7DEB78C01FA
:10177000040F111DF80181918F01882341F0662328
:1017800031F069830E94910B69816150F3CF0F9012
:10179000DF91CF911F910F910895CF93DF93CDB734
:1017A000DEB761970FB6F894DEBF0FBECDBF462FF0
:1017B00050E0BE016F5F7F4F0E94390DCE01019650
:1017C0000E94950B61960FB6F894DEBF0FBECDBF99
:1017D000DF91CF910895EF92FF920F931F93CF93D4
:1017E000DF93CDB7DEB761970FB6F894DEBF0FBEBB
:1017F000CDBFE42E462F50E08E010F5F1F4FB80182
:101800000E94390DF80101900020E9F73197E01BA3
:10181000F10BFE2CFE1A1F1454F4FA9480E30E947C
:10182000910BF110FACFC8010E94950B06C04F2D05
:1018300041956E2DC8010E94B00B61960FB6F894C9
:10184000DEBF0FBECDBFDF91CF911F910F91FF90F3
:10185000EF9008951F920F920FB60F9211242F93BD
:101860008F939F93EF93FF9390917E0080917F00E1
:10187000292F281B2032A8F4E091800081E08E0FF0
:1018800080938000F0E02CB1E051FF4F20839F5FF8
:1018900090937E00813210F0109280001092EF0041
:1018A00006C08CB18093830081E08093EF00FF91AC
:1018B000EF919F918F912F910F900FBE0F901F90DE
:1018C00018951092EF0080917F0090917E009817FC
:1018D000A1F08F5F80937F0080918100813210F0B2
:1018E00010928100E091810081E08E0F8093810051
:1018F000F0E0E051FF4F8081089580E0089510925C
:10190000EF00282FFC018E2F821B90917F003091D9
:101910007E003917B9F08617A8F49F5F90937F0077
:10192000A091810081E08A0F80938100B0E0A051F6
:10193000BF4F8C91819380918100813220F310926E
:101940008100E1CF089580917E0090917F00891BF6
:10195000089557988CB18093820010928100109264
:10196000800010927F0010927E001092EF00579A34
:1019700008950E944C0B8FE30E942F028CED95E09E
:101980000E94960781E20E942F028FE291E00E945E
:101990004B020E94AD0580E00E941F0364E670E0E8
:1019A00084E690E00E9431038091B50082608093CC
:1019B000B50080916B00811103C00E944D0109C0E8
:1019C000813019F40E94850104C0823011F40E9414
:1019D000B1010E9483020E94350AEBCFA29FB001A1
:1019E000B39FC001A39F700D811D1124911DB29F53
:1019F000700D811D1124911D0895AA1BBB1B51E17F
:101A000007C0AA1FBB1FA617B70710F0A61BB70B6E
:101A1000881F991F5A95A9F780959095BC01CD0113
:101A20000895A1E21A2EAA1BBB1BFD010DC0AA1F1F
:101A3000BB1FEE1FFF1FA217B307E407F50720F037
:101A4000A21BB30BE40BF50B661F771F881F991FB2
:101A50001A9469F760957095809590959B01AC01FB
:101A6000BD01CF010895EE0FFF1F0590F491E02D09
:101A70000994FB019F01E8944230C4F04532B4F46C
:101A80004A3029F497FB1EF4909581959F4F642F5F
:101A900077270E94FD0C805D8A330CF0895D81936D
:101AA000CB010097A1F716F45DE251931082C901B2
:101AB0000C945A0DDC01FC01672F71917723E1F73B
:101AC000329704C07C916D9370836291AE17BF070B
:081AD000C8F30895F894FFCF5C
:0A1AD800E401E30101E201E1010075
:00000001FF
